{
	"contractName": "base",
	"abi": [
		{
			"inputs": [],
			"stateMutability": "nonpayable",
			"type": "constructor"
		},
		{
			"inputs": [
				{
					"internalType": "string",
					"name": "_name",
					"type": "string"
				},
				{
					"internalType": "uint256",
					"name": "_expectedAmt",
					"type": "uint256"
				},
				{
					"internalType": "uint256",
					"name": "_startDate",
					"type": "uint256"
				},
				{
					"internalType": "uint256",
					"name": "_endDate",
					"type": "uint256"
				}
			],
			"name": "createProject",
			"outputs": [
				{
					"internalType": "string",
					"name": "",
					"type": "string"
				},
				{
					"internalType": "uint256",
					"name": "",
					"type": "uint256"
				},
				{
					"internalType": "uint256",
					"name": "",
					"type": "uint256"
				}
			],
			"stateMutability": "nonpayable",
			"type": "function"
		},
		{
			"inputs": [],
			"name": "getProjects",
			"outputs": [
				{
					"components": [
						{
							"internalType": "string",
							"name": "name",
							"type": "string"
						},
						{
							"internalType": "uint256",
							"name": "expectedAmt",
							"type": "uint256"
						},
						{
							"internalType": "uint256",
							"name": "realizeAmt",
							"type": "uint256"
						},
						{
							"internalType": "uint256",
							"name": "startDate",
							"type": "uint256"
						},
						{
							"internalType": "uint256",
							"name": "endDate",
							"type": "uint256"
						}
					],
					"internalType": "struct base.Project[]",
					"name": "",
					"type": "tuple[]"
				}
			],
			"stateMutability": "view",
			"type": "function",
			"constant": true
		},
		{
			"inputs": [
				{
					"internalType": "uint256",
					"name": "_index",
					"type": "uint256"
				}
			],
			"name": "createDonation",
			"outputs": [],
			"stateMutability": "payable",
			"type": "function",
			"payable": true
		},
		{
			"inputs": [],
			"name": "getMyDonations",
			"outputs": [
				{
					"components": [
						{
							"internalType": "uint256",
							"name": "projectIndex",
							"type": "uint256"
						},
						{
							"internalType": "uint256",
							"name": "amount",
							"type": "uint256"
						}
					],
					"internalType": "struct base.Donation[]",
					"name": "",
					"type": "tuple[]"
				}
			],
			"stateMutability": "view",
			"type": "function",
			"constant": true
		},
		{
			"inputs": [
				{
					"internalType": "uint256",
					"name": "_index",
					"type": "uint256"
				}
			],
			"name": "updateDonation",
			"outputs": [],
			"stateMutability": "payable",
			"type": "function",
			"payable": true
		},
		{
			"inputs": [],
			"name": "getAdminAddress",
			"outputs": [
				{
					"internalType": "address",
					"name": "",
					"type": "address"
				}
			],
			"stateMutability": "view",
			"type": "function",
			"constant": true
		}
	],
	"bytecode": "0x608060405234801561001057600080fd5b5033600260006101000a81548173ffffffffffffffffffffffffffffffffffffffff021916908373ffffffffffffffffffffffffffffffffffffffff160217905550611415806100616000396000f3fe6080604052600436106100555760003560e01c8063610a6a2a1461005a57806390e4a13014610099578063b2e6b912146100c4578063dcc60128146100ef578063edb560ea1461011a578063f51f263314610136575b600080fd5b34801561006657600080fd5b50610081600480360381019061007c9190610c45565b610152565b60405161009093929190610fae565b60405180910390f35b3480156100a557600080fd5b506100ae610261565b6040516100bb9190610f6a565b60405180910390f35b3480156100d057600080fd5b506100d9610311565b6040516100e69190610f4f565b60405180910390f35b3480156100fb57600080fd5b5061010461033b565b6040516101119190610f8c565b60405180910390f35b610134600480360381019061012f9190610cc0565b610454565b005b610150600480360381019061014b9190610cc0565b6107be565b005b606060008061015f610adc565b6000429050888260000181905250878260200181815250506000826040018181525050600087141561019157806101ac565b62015180876101a09190611157565b816101ab9190611101565b5b82606001818152505062015180866101c49190611157565b816101cf9190611101565b82608001818152505060008290806001815401808255809150506001900390600052602060002090600502016000909190919091506000820151816000019080519060200190610220929190610b0b565b506020820151816001015560408201518160020155606082015181600301556080820151816004015550508888600094509450945050509450945094915050565b6060600160003373ffffffffffffffffffffffffffffffffffffffff1673ffffffffffffffffffffffffffffffffffffffff168152602001908152602001600020805480602002602001604051908101604052809291908181526020016000905b82821015610308578382906000526020600020906002020160405180604001604052908160008201548152602001600182015481525050815260200190600101906102c2565b50505050905090565b6000600260009054906101000a900473ffffffffffffffffffffffffffffffffffffffff16905090565b60606000805480602002602001604051908101604052809291908181526020016000905b8282101561044b57838290600052602060002090600502016040518060a00160405290816000820180546103929061122f565b80601f01602080910402602001604051908101604052809291908181526020018280546103be9061122f565b801561040b5780601f106103e05761010080835404028352916020019161040b565b820191906000526020600020905b8154815290600101906020018083116103ee57829003601f168201915b505050505081526020016001820154815260200160028201548152602001600382015481526020016004820154815250508152602001906001019061035f565b50505050905090565b6000341161046157600080fd5b806000818154811061049c577f4e487b7100000000000000000000000000000000000000000000000000000000600052603260045260246000fd5b9060005260206000209060050201600301544210806105055750600081815481106104f0577f4e487b7100000000000000000000000000000000000000000000000000000000600052603260045260246000fd5b90600052602060002090600502016004015442115b15610545576040517f08c379a000000000000000000000000000000000000000000000000000000000815260040161053c90610fec565b60405180910390fd5b6000600160003373ffffffffffffffffffffffffffffffffffffffff1673ffffffffffffffffffffffffffffffffffffffff168152602001908152602001600020805480602002602001604051908101604052809291908181526020016000905b828210156105ec578382906000526020600020906002020160405180604001604052908160008201548152602001600182015481525050815260200190600101906105a6565b50505050905060005b81518110156107b85783828281518110610638577f4e487b7100000000000000000000000000000000000000000000000000000000600052603260045260246000fd5b60200260200101516000015114156107a5573460008581548110610685577f4e487b7100000000000000000000000000000000000000000000000000000000600052603260045260246000fd5b906000526020600020906005020160020160008282546106a59190611101565b92505081905550348282815181106106e6577f4e487b7100000000000000000000000000000000000000000000000000000000600052603260045260246000fd5b60200260200101516020018181516106fe9190611101565b9150818152505034600160003373ffffffffffffffffffffffffffffffffffffffff1673ffffffffffffffffffffffffffffffffffffffff168152602001908152602001600020828154811061077d577f4e487b7100000000000000000000000000000000000000000000000000000000600052603260045260246000fd5b9060005260206000209060020201600101600082825461079d9190611101565b925050819055505b80806107b090611292565b9150506105f5565b50505050565b600034116107cb57600080fd5b8060008181548110610806577f4e487b7100000000000000000000000000000000000000000000000000000000600052603260045260246000fd5b90600052602060002090600502016003015442108061086f57506000818154811061085a577f4e487b7100000000000000000000000000000000000000000000000000000000600052603260045260246000fd5b90600052602060002090600502016004015442115b156108af576040517f08c379a00000000000000000000000000000000000000000000000000000000081526004016108a690610fec565b60405180910390fd5b6000600160003373ffffffffffffffffffffffffffffffffffffffff1673ffffffffffffffffffffffffffffffffffffffff168152602001908152602001600020805480602002602001604051908101604052809291908181526020016000905b8282101561095657838290600052602060002090600202016040518060400160405290816000820154815260200160018201548152505081526020019060010190610910565b50505050905060005b81518110156109d7578181815181106109a1577f4e487b7100000000000000000000000000000000000000000000000000000000600052603260045260246000fd5b6020026020010151600001518414156109c4576109bd84610454565b5050610ad8565b80806109cf90611292565b91505061095f565b506109e0610b91565b83816000018181525050348160200181815250503460008581548110610a2f577f4e487b7100000000000000000000000000000000000000000000000000000000600052603260045260246000fd5b90600052602060002090600502016002016000828254610a4f9190611101565b92505081905550600160003373ffffffffffffffffffffffffffffffffffffffff1673ffffffffffffffffffffffffffffffffffffffff1681526020019081526020016000208190806001815401808255809150506001900390600052602060002090600202016000909190919091506000820151816000015560208201518160010155505050505b5050565b6040518060a0016040528060608152602001600081526020016000815260200160008152602001600081525090565b828054610b179061122f565b90600052602060002090601f016020900481019282610b395760008555610b80565b82601f10610b5257805160ff1916838001178555610b80565b82800160010185558215610b80579182015b82811115610b7f578251825591602001919060010190610b64565b5b509050610b8d9190610bab565b5090565b604051806040016040528060008152602001600081525090565b5b80821115610bc4576000816000905550600101610bac565b5090565b6000610bdb610bd684611031565b61100c565b905082815260208101848484011115610bf357600080fd5b610bfe8482856111ed565b509392505050565b600082601f830112610c1757600080fd5b8135610c27848260208601610bc8565b91505092915050565b600081359050610c3f816113c8565b92915050565b60008060008060808587031215610c5b57600080fd5b600085013567ffffffffffffffff811115610c7557600080fd5b610c8187828801610c06565b9450506020610c9287828801610c30565b9350506040610ca387828801610c30565b9250506060610cb487828801610c30565b91505092959194509250565b600060208284031215610cd257600080fd5b6000610ce084828501610c30565b91505092915050565b6000610cf58383610e8c565b60408301905092915050565b6000610d0d8383610ebb565b905092915050565b610d1e816111b1565b82525050565b6000610d2f82611082565b610d3981856110bd565b9350610d4483611062565b8060005b83811015610d75578151610d5c8882610ce9565b9750610d67836110a3565b925050600181019050610d48565b5085935050505092915050565b6000610d8d8261108d565b610d9781856110ce565b935083602082028501610da985611072565b8060005b85811015610de55784840389528151610dc68582610d01565b9450610dd1836110b0565b925060208a01995050600181019050610dad565b50829750879550505050505092915050565b6000610e0282611098565b610e0c81856110df565b9350610e1c8185602086016111fc565b610e2581611368565b840191505092915050565b6000610e3b82611098565b610e4581856110f0565b9350610e558185602086016111fc565b610e5e81611368565b840191505092915050565b6000610e766028836110f0565b9150610e8182611379565b604082019050919050565b604082016000820151610ea26000850182610f31565b506020820151610eb56020850182610f31565b50505050565b600060a0830160008301518482036000860152610ed88282610df7565b9150506020830151610eed6020860182610f31565b506040830151610f006040860182610f31565b506060830151610f136060860182610f31565b506080830151610f266080860182610f31565b508091505092915050565b610f3a816111e3565b82525050565b610f49816111e3565b82525050565b6000602082019050610f646000830184610d15565b92915050565b60006020820190508181036000830152610f848184610d24565b905092915050565b60006020820190508181036000830152610fa68184610d82565b905092915050565b60006060820190508181036000830152610fc88186610e30565b9050610fd76020830185610f40565b610fe46040830184610f40565b949350505050565b6000602082019050818103600083015261100581610e69565b9050919050565b6000611016611027565b90506110228282611261565b919050565b6000604051905090565b600067ffffffffffffffff82111561104c5761104b611339565b5b61105582611368565b9050602081019050919050565b6000819050602082019050919050565b6000819050602082019050919050565b600081519050919050565b600081519050919050565b600081519050919050565b6000602082019050919050565b6000602082019050919050565b600082825260208201905092915050565b600082825260208201905092915050565b600082825260208201905092915050565b600082825260208201905092915050565b600061110c826111e3565b9150611117836111e3565b9250827fffffffffffffffffffffffffffffffffffffffffffffffffffffffffffffffff0382111561114c5761114b6112db565b5b828201905092915050565b6000611162826111e3565b915061116d836111e3565b9250817fffffffffffffffffffffffffffffffffffffffffffffffffffffffffffffffff04831182151516156111a6576111a56112db565b5b828202905092915050565b60006111bc826111c3565b9050919050565b600073ffffffffffffffffffffffffffffffffffffffff82169050919050565b6000819050919050565b82818337600083830152505050565b60005b8381101561121a5780820151818401526020810190506111ff565b83811115611229576000848401525b50505050565b6000600282049050600182168061124757607f821691505b6020821081141561125b5761125a61130a565b5b50919050565b61126a82611368565b810181811067ffffffffffffffff8211171561128957611288611339565b5b80604052505050565b600061129d826111e3565b91507fffffffffffffffffffffffffffffffffffffffffffffffffffffffffffffffff8214156112d0576112cf6112db565b5b600182019050919050565b7f4e487b7100000000000000000000000000000000000000000000000000000000600052601160045260246000fd5b7f4e487b7100000000000000000000000000000000000000000000000000000000600052602260045260246000fd5b7f4e487b7100000000000000000000000000000000000000000000000000000000600052604160045260246000fd5b6000601f19601f8301169050919050565b7f43726f776466756e64696e6720686173206e6f742073746172746564206f722060008201527f6861732070617374000000000000000000000000000000000000000000000000602082015250565b6113d1816111e3565b81146113dc57600080fd5b5056fea26469706673582212208a7e85486a1cd41066d9c6d909b3ddcd1abbe2d5f3a1ccd89ddcbb33e34b86c464736f6c63430008040033",
	"immutableReferences": {},
	"source": "// SPDX-License-Identifier: MIT\npragma solidity ^0.8.4;\n\ncontract base {\n    struct Project {\n        string name;\n        uint expectedAmt;\n        uint realizeAmt;\n        uint startDate;\n        uint endDate;\n    }\n\n    struct Donation {\n        uint projectIndex;\n        uint amount;\n    }\n\n    Project[] projects;\n    mapping(address => Donation[]) userDonations;\n\n    address admin;\n\n    modifier greaterThanZero() {\n        if (msg.value <= 0) {\n            revert();\n        } else {\n            _;\n        }\n    }\n\n    modifier ended(uint _index) {\n        if (\n            block.timestamp < projects[_index].startDate ||\n            block.timestamp > projects[_index].endDate\n        ) {\n            revert(\"Crowdfunding has not started or has past\");\n        } else {\n            _;\n        }\n    }\n\n    constructor() {\n        admin = msg.sender;\n    }\n\n    function createProject(\n        string memory _name,\n        uint _expectedAmt,\n        uint _startDate,\n        uint _endDate\n    ) public returns (string memory, uint, uint) {\n        Project memory project;\n        uint time = block.timestamp;\n\n        project.name = _name;\n        project.expectedAmt = _expectedAmt;\n        project.realizeAmt = 0;\n        project.startDate = _startDate != 0 ? time + _startDate * 1 days : time;\n        project.endDate = time + _endDate * 1 days;\n        projects.push(project);\n        return (_name, _expectedAmt, 0);\n    }\n\n    function getProjects() public view returns (Project[] memory) {\n        return projects;\n    }\n\n    function createDonation(\n        uint _index\n    ) public payable greaterThanZero ended(_index) {\n        // checkIfUserHasDonated(_index);\n        Donation[] memory donations = userDonations[msg.sender];\n        for (uint i; i < donations.length; i++) {\n            if (_index == donations[i].projectIndex) {\n                updateDonation(_index);\n                return;\n            }\n        }\n\n        Donation memory donation;\n        donation.projectIndex = _index;\n        donation.amount = msg.value;\n        projects[_index].realizeAmt += msg.value;\n        userDonations[msg.sender].push(donation);\n    }\n\n    function getMyDonations() public view returns (Donation[] memory) {\n        return userDonations[msg.sender];\n    }\n\n    function updateDonation(\n        uint _index\n    ) public payable greaterThanZero ended(_index) {\n        Donation[] memory donations = userDonations[msg.sender];\n        for (uint i; i < donations.length; i++) {\n            if (donations[i].projectIndex == _index) {\n                projects[_index].realizeAmt += msg.value;\n                donations[i].amount += msg.value;\n                userDonations[msg.sender][i].amount += msg.value;\n            }\n        }\n    }\n\n    function getAdminAddress() external view returns (address) {\n        return admin;\n    }\n}\n\n// interface GeneratedInterface {\n//   function createProject ( string _name, uint256 _expectedAmt, uint256 _startDate, uint256 _endDate ) external returns ( string, uint256, uint256 );\n//   function getProjects (  ) external view returns ( tuple[] );\n//   function createDonation ( uint256 _index ) external payable;\n//   function getMyDonations (  ) external view returns ( tuple[] );\n//   function updateDonation ( uint256 _index ) external payable;\n//   function getAdminAddress (  ) external view returns ( address );\n// }\n",
	"sourcePath": "/Users/macs/Desktop/school_projects/futfund/contracts/base.sol",
	"compiler": {
		"name": "solc",
		"version": "0.8.4+commit.c7e474f2.Emscripten.clang"
	},
	"schemaVersion": "3.4.13",
	"updatedAt": "2023-08-03T04:26:09.158Z",
	"networkType": "ethereum",
	"devdoc": {
		"kind": "dev",
		"methods": {},
		"version": 1
	},
	"userdoc": {
		"kind": "user",
		"methods": {},
		"version": 1
	}
}